:1000000015C200003CC200003AC2000038C2000025
:1000100036C2000034C2000032C2000030C200000C
:100020002EC200000C9435182AC2000028C200001D
:1000300026C2000024C2000022C200000C94D61583
:100040001EC200001CC200000C949B160C94C71624
:1000500016C2000014C2000012C2000010C200004C
:100060000EC200000CC200000AC2000008C200005C
:1000700006C2000004C2000002C2000000C200006C
:10008000FEC10000FCC10000FAC100000D0A544589
:100090004C4520456E640D0A0053656E736F7220E7
:1000A0006F75743A2020000D0A0053656E736F72ED
:1000B00020696E3A202020000D0A004469737461A3
:1000C0006E63653A202020200065784E3D2534641B
:1000D0002C20626173654E623D2532642C20626182
:1000E00073654E653D2532642C20626173653D2544
:1000F00035642C2075646C3D2537640D0A000D0AAB
:1001000000556E6B6E6F776E20737461747573003B
:100110004269672074756265203F004572726F7294
:100120002053656E736F72730052656E6465722042
:100130006C656E73007374617475733A20000D0AF8
:1001400054454C4520426567696E0D0A00C4EBE8D2
:10015000EDE020F2F0F3E1FB3D253564ECEC0D0A17
:1001600000CFF0EEE2E5F0EAE02052533233320DF8
:100170000A00F3F1F2E0EDEEE2EBE5ED00CDEEE2A8
:10018000FBE920EFE0F0EEEBFC00EDEEE2FBE92016
:10019000EFE0F0EEEBFC3A002A2A20F1EEF5F0E079
:1001A000EDE5EDEE202A2A00C42531643A20E4E88A
:1001B000F1F22E3D25356400CDE0F1F2F0EEE9EAF2
:1001C000E000CCE5EDFE2DE2FBE1EEF03A00EFE0E1
:1001D000F0EEEBFF00CEF8E8E1EAE020E2E2EEE448
:1001E000E000CCE5EDFE2DEFE0F0EEEBFC3A00CECA
:1001F000F8E8E1EAE000D0E5E2E5F0F10025356459
:1002000020004C3D00D3F1F22E20EFE0F0EEEBFCAD
:100210002020202000CAEEF0F0E5EAF6E8FF20E416
:10022000EBE8EDFB00C4E8F1F22E205351373C2DF2
:100230003E53513800C4E8F1F22E205351363C2D84
:100240003E53513800C4E8F1F22E205351353C2D75
:100250003E53513800C4E8F1F22E205351343C2D66
:100260003E53513800C4E8F1F22E205351333C2D57
:100270003E53513800C4E8F1F22E205351323C2D48
:100280003E53513800C4E8F1F22E205351313C2D39
:100290003E535138000202030600E709BF0A9A09DB
:1002A0009A099A099A099B099A09400AC20A850A79
:1002B0009B0ACE0A9A09C7099A099A09400BD20CDF
:1002C000E00C430B9A09B70C9A099A099A0B310D65
:1002D000460DA20B5C0D0A0D9A099A099B099A0911
:1002E0009A099A099A099A09CD0B9A09D00BF80D27
:1002F0000E0ED80B9A09DB0D9A099A09B70C9A09C8
:100300009A099A099A099A09310C9A099A099A093B
:100310009A099A099A099A099A099A099A099A09C5
:100320009A099A099A099A099A099A099A099A09B5
:100330009A099A099A099A099A099A099A099A09A5
:100340009A099A099A099A099A099A099A099A0995
:100350009A099A099A099A099A099A099A099A0985
:100360009A099A099A099A099A099A099A099A0975
:100370009A099A099A099A099A099A099A099A0965
:100380009A099A099A099A099A099A099A099A0955
:100390009A099A099A099A099A0906090906000010
:1003A0000000060F0F0600000000C8C9CACBD7D84E
:1003B000D9DADBDCEDFDEEEFF0F1F2F4CCCDCECF0F
:1003C000D0D1D2D3D4D5D6DDDEDFE7E8E9EAEBEC55
:1003D000F3F5A2F6F7F8F9FAFBFCFEFF2020202047
:1003E0002020B52020202020202041A042A1E0454F
:1003F000A3A4A5A64BA74D484FA8504354A9AA585B
:10040000E1ABACE2ADAE62AFB0B161B2B3B4E36543
:10041000B6B7B8B9BABBBCBD6FBE7063BF79E4787C
:10042000E5C0C1E6C2C3C4C5C6C71E1511241FBEA0
:10043000CFEFD0E1DEBFCDBF11E0A0E0B1E0E8E05A
:10044000FDE300E00BBF02C007900D92A033B1079F
:10045000D9F721E0A0E3B1E001C01D92AB3DB207A6
:10046000E1F712E0C6E1D2E004C02197FE010E944C
:10047000D719C531D107C9F703D70C94821EC0CD57
:100480001092710110927201109273011092740116
:100490001092300181E08093060108958CE090E095
:1004A0000E940516FC0181E390E09283818382E340
:1004B00090E09483838380E390E09683858380E259
:1004C00090E0908787838EEE81878D98A381B48199
:1004D0002C9181E090E0078002C0880F991F0A9458
:1004E000E2F7822B8C938FE99FE00197F1F700C030
:1004F0000000A581B6812C9130E08781908528236A
:10050000392381E0232B09F480E0838780838823CB
:1005100019F08185828701C01286F0937601E093FD
:1005200075018CE090E00E940516FC0181E390E0EB
:100530009283818382E390E09483838380E390E0DD
:100540009683858380E190E0908787838EEE818714
:100550008C98A381B4812C9181E090E0078002C047
:10056000880F991F0A94E2F7822B8C938FE99FE002
:100570000197F1F700C00000A581B6812C9130E011
:10058000878190852823392381E0232B09F480E09B
:1005900083878083882319F08185828701C0128632
:1005A000F0937801E09377018CE090E00E940516CB
:1005B000FC0187E390E09283818388E390E0948359
:1005C000838386E390E09683858380E890E090873C
:1005D00087838EEE8187BF98A381B4812C9181E0BF
:1005E00090E0078002C0880F991F0A94E2F7822BDF
:1005F0008C938FE99FE00197F1F700C00000A5817F
:10060000B6812C9130E0878190852823392381E0C1
:10061000232B09F480E083878083882319F0818568
:10062000828701C01286F0937A01E09379018CE011
:1006300090E00E940516FC0187E390E0928381839D
:1006400088E390E09483838386E390E096838583B8
:1006500080E490E0908787838EEE8187BE98A381A7
:10066000B4812C9181E090E0078002C0880F991F2F
:100670000A94E2F7822B8C938FE99FE00197F1F7C0
:1006800000C00000A581B6812C9130E08781908563
:100690002823392381E0232B09F480E0838780839A
:1006A000882319F08185828701C01286F0937C012E
:1006B000E0937B018CE090E00E940516FC0187E34B
:1006C00090E09283818388E390E09483838386E340
:1006D00090E09683858380E290E0908787838EEE1A
:1006E0008187BD98A381B4812C9181E090E007803F
:1006F00002C0880F991F0A94E2F7822B8C938FE92E
:100700009FE00197F1F700C00000A581B6812C9110
:1007100030E0878190852823392381E0232B09F459
:1007200080E083878083882319F08185828701C0D8
:100730001286F0937E01E0937D018CE090E00E94B0
:100740000516FC0187E390E09283818388E390E0C3
:100750009483838386E390E09683858380E190E0B1
:10076000908787838EEE8187BC98A381B4812C917A
:1007700081E090E0078002C0880F991F0A94E2F799
:10078000822B8C938FE99FE00197F1F700C0000066
:10079000A581B6812C9130E087819085282339236B
:1007A00081E0232B09F480E083878083882319F07C
:1007B0008185828701C01286F0938001E0937F01DA
:1007C0008CE090E00E940516FC0182E290E09283AA
:1007D000818383E290E09483838381E290E0968337
:1007E000858380E890E0908787838EEE81871798D5
:1007F000A381B4812C9181E090E0078002C0880F32
:10080000991F0A94E2F7822B8C938FE99FE001975E
:10081000F1F700C00000A581B6812C9130E08781FE
:1008200090852823392381E0232B09F480E08387F6
:100830008083882319F08185828701C01286F09316
:100840008201E09381018CE090E00E940516FC019A
:1008500082E290E09283818383E290E094838383B9
:1008600081E290E09683858380E490E0908787839F
:100870008EEE81871698A381B4812C9181E090E05F
:10088000078002C0880F991F0A94E2F7822B8C938D
:100890008FE99FE00197F1F700C00000A581B681C4
:1008A0002C9130E0878190852823392381E0232B08
:1008B00009F480E083878083882319F0818582870B
:1008C00001C01286F0938401E09383018CE090E0F4
:1008D0000E940516FC0182E290E09283818383E20C
:1008E00090E09483838381E290E09683858380E225
:1008F00090E0908787838EEE81871598A381B481DD
:100900002C9181E090E0078002C0880F991F0A9423
:10091000E2F7822B8C938FE99FE00197F1F700C0FB
:100920000000A581B6812C9130E087819085282335
:10093000392381E0232B09F480E083878083882397
:1009400019F08185828701C01286F0938601E093B9
:1009500085018CE090E00E940516FC0182E290E0A7
:100960009283818383E290E09483838381E290E0A9
:100970009683858380E190E0908787838EEE8187E0
:100980001498A381B4812C9181E090E0078002C08B
:10099000880F991F0A94E2F7822B8C938FE99FE0CE
:1009A0000197F1F700C00000A581B6812C9130E0DD
:1009B000878190852823392381E0232B09F480E067
:1009C00083878083882319F08185828701C01286FE
:1009D000F0938801E093870153CD0895AF92BF92C1
:1009E000CF92DF92EF92FF920F931F93CF93DF93FB
:1009F0000F2EF5E7AF2EF1E0BF2EF02D45E851E0C8
:100A0000D50169E071E0ED91FC9111976083ED9162
:100A1000FD9185819681EC018881282F30E08781C6
:100A2000908582239323892B71F082859185891784
:100A300020F48F5F8287891790F0838581110FC022
:100A4000738770830CC08285882321F08150828750
:100A5000811105C08385882311F013861082A417A5
:100A6000B50789F680910601813041F5E091830157
:100A7000F09184018385882309F4EBC0E091810122
:100A8000F09182018385882309F4E3C0E0917F011E
:100A9000F091800183858111B4C0DBC01082118286
:100AA0001282138214821582168217823896E817F2
:100AB000F907A1F782E08093060103C0823009F0B4
:100AC000C8C08091710190917201A0917301B091A1
:100AD00074010097A105B105A1F4E5E7F1E001E09B
:100AE00010E070E060E021913191E9012B85211146
:100AF00004C0802F912FA72FB62F4E175F0799F7AD
:100B00008DC00196A11DB11D80937101909372015A
:100B1000A0937301B0937401E0917501F091760197
:100B20008385882309F482C0E0917701F0917801F0
:100B30008385882309F47AC0E0917901F0917A01E4
:100B40008385882309F472C0E0917B01F0917C01D8
:100B50008385882309F46AC0E0917D01F0917E01CC
:100B60008385882309F462C0E0917F01F0918001C0
:100B70008385882309F45AC0E0918101F0918201B4
:100B80008385882309F452C0E0918301F0918401A8
:100B90008385811158C04AC0E501A991B9915E01D0
:100BA0002C91211113C00081118122813381012BED
:100BB000022B032B91F4C082D182E282F38288302F
:100BC000910524F410861186128613862C9121300B
:100BD00021F4C482D582E682F782389601964A15BE
:100BE0005B05D1F6E0918301F09184018081811150
:100BF00030C0E0918101F09182018385882339F131
:100C000028C010927101109272011092730110921B
:100C10007401E1E3F1E081E791E040CF809371015D
:100C200090937201A0937301B0937401C09071010D
:100C3000D0907201E0907301F0907401E1E3F1E073
:100C400081E090E0A9CF81E08093060102C010927C
:100C50000601DF91CF911F910F91FF90EF90DF90F0
:100C6000CF90BF90AF900895CF92DF92EF92FF9216
:100C70000F931F93CF93DF93C82FD62FD42EC22E5E
:100C80008EE391E09F938F938091AF018F9380913A
:100C9000AE018F930E94571B85E391E09F938F9342
:100CA0008091AF018F938091AE018F930E94571B6B
:100CB0008DB79EB708960FB6F8949EBF0FBE8DBF36
:100CC000C13089F489E291E09F938F938091AF01C5
:100CD0008F938091AE018F930E94571B0F900F90BE
:100CE0000F900F9036C0C23089F48BE191E09F9352
:100CF0008F938091AF018F938091AE018F930E946B
:100D0000571B0F900F900F900F9023C0C33089F4A2
:100D100080E191E09F938F938091AF018F938091B9
:100D2000AE018F930E94571B0F900F900F900F9062
:100D300010C081E091E09F938F938091AF018F93DA
:100D40008091AE018F930E94571B0F900F900F90D0
:100D50000F908EEF90E09F938F938091AF018F93D0
:100D60008091AE018F930E94571BFF92EF921F93C9
:100D70000F938C2D0C2C000C990B9F93CF928D2DE3
:100D80000D2C000C990B9F93DF928D2F0D2E000CD4
:100D9000990B9F93DF9389EC90E09F938F938091C1
:100DA000AF018F938091AE018F930E94571B8BEB05
:100DB00090E09F938F938091AF018F938091AE01CC
:100DC0008F930E94571BC7E0D1E007E111E0EDB718
:100DD000FEB776960FB6F894FEBF0FBEEDBF4991F1
:100DE000599160E070E08CE00E949A17C017D1071B
:100DF000B1F788EB90E09F938F938091AF018F9331
:100E00008091AE018F930E94571B8AEA90E09F93D6
:100E10008F938091AF018F938091AE018F930E9449
:100E2000571BC1E3D1E00F2EF1E7EF2EF1E0FF2ECB
:100E3000F02D8DB79EB708960FB6F8949EBF0FBEE3
:100E40008DBF8E01F80140815181628173818CE0F8
:100E50000E949A17085F1F4F0E151F0599F787EA22
:100E600090E09F938F938091AF018F938091AE011B
:100E70008F930E94571B89E990E09F938F938091F5
:100E8000AF018F938091AE018F930E94571B8DB756
:100E90009EB708960FB6F8949EBF0FBE8DBF4C81CB
:100EA0005D816E817F818CE00E949A172896CE1515
:100EB000DF05A9F78CE890E09F938F938091AF01B5
:100EC0008F938091AE018F930E94571B0F900F90CC
:100ED0000F900F90DF91CF911F910F91FF90EF90A6
:100EE000DF90CF9008952F923F924F925F926F9232
:100EF0007F928F929F92AF92BF92CF92DF92EF92AA
:100F0000FF920F931F93CF93DF93CDB7DEB7679711
:100F10000FB6F894DEBF0FBECDBF9C0190910601C5
:100F20009111EFC03A8B298B0F2EF5E08F2EF0E058
:100F30009F2EF02D07E011E00F2EF7E16F2EF1E06C
:100F40007F2EF02DC4010E945D1ED8018D939D93CC
:100F50008D01B2E08B0E911C0615170599F7E1E3A0
:100F6000F1E020AD31AD42AD53AD2D873E874F87C7
:100F7000588B40A851A862A873A84216530664066D
:100F800075066CF48091590190915A01A0915B0112
:100F9000B0915C0184159505A605B70574F081E054
:100FA00080930601E12CF12C00E010E02FEF4FEFD1
:100FB0006FEF8FEF59DE8FEF4AC1E9E5F1E00F2EB9
:100FC000F5E09F2EF02D892D408151816281738142
:100FD000452B462B472B49F044815581668177810B
:100FE00014161506160617062CF0815038978F3FF9
:100FF00059F703C0982E882374F481E0809306018A
:10100000E12CF12C00E010E02FEF4FEF6FEF83E0C9
:101010002BDE83E01CC1282F880F330BF901EE0F64
:10102000FF1FEE0FFF1FEE0FFF1FEF5CFE4F8481CF
:101030009581A681B7810097A105B10571F481E082
:1010400080930601E12CF12C00E010E02FEF4FEF30
:101050006FEF83E009DE83E0FAC04D855E856F8522
:10106000788984179507A607B7074CF4481B590BD6
:101070006A0B7B0B49835A836B837C8308C04FE3E5
:1010800052E46FE070E049835A836B837C8384155C
:101090009505A605B7059CF0AC01BD01441955099D
:1010A000660977094D835E836F8378874FE352E447
:1010B0006FE070E049875A876B877C8724C04FE3D5
:1010C00052E46FE070E04D835E836F837887B301F5
:1010D000A201481B590B6A0B7B0B49875A876B8708
:1010E0007C8711C01F8A0F2EF7E08F2EF02DCD8048
:1010F000DE80EF80F884C416D506E606F706D4F045
:1011000016C080E0A4C049815A816B817C814F3335
:10111000E2E45E07EFE06E07710524F3FFEFFF8B5B
:101120004FE352E46FE070E088248A94E0CF6A01D4
:101130007B0106C041E04F8B0F2EF6E08F2EF02D85
:1011400049855A856B857C854C155D056E057F0547
:1011500034F452E05F8B0F2EF6E08F2EF02D482DE9
:10116000082C000C550B07E011E0BA01660F771F41
:10117000695F7E4F220F331F295F3E4FFB01608165
:101180007181F901208131811B01221A330A440F38
:10119000551F440F551F440F551F4F5C5E4FFA01FA
:1011A0004081518162817381841B950BA60BB70B23
:1011B0009C01AD01550F220B322FA9012B8B3C8BCB
:1011C0004D8B5E8BF8012685378544855585241B1C
:1011D000350B8901A02EB12EC12CD12CE12CF12C84
:1011E00000E010E0282F392F4A2F5B2F6B89762FD4
:1011F000862F962F0E94B618ED84FE840F851889DD
:10120000E418F5080609170927013801770C440886
:10121000542C3201AE2CBF2CC02ED12EE42CF42C39
:10122000042D142D0E940919022F132FC101800FC4
:10123000911FA989BA898D939C9381E080930601BF
:1012400078018101282D492D6F890EDD81E0679697
:101250000FB6F894DEBF0FBECDBFDF91CF911F91C7
:101260000F91FF90EF90DF90CF90BF90AF909F9045
:101270008F907F906F905F904F903F902F90089548
:10128000CF93DF9300D0CDB7DEB751D68091B001B8
:101290009091B1019093D8018093D701D5D47894DF
:1012A00081E691E09F938F938091AF018F9380911E
:1012B000AE018F930E94571B0F900F900F900F90CD
:1012C0006894FF24F1F811E00F2EFDE4CF2EF1E039
:1012D000DF2EF02D0FEFCE01019605DE8F3F19F4C2
:1012E0000093CF0125C08130E9F489819A818093F0
:1012F0002D0190932E011093CF011093D0019F9355
:101300008F93DF92CF928091AF018F938091AE0146
:101310008F930E94571B0F900F900F900F900F907C
:101320000F9006C0823021F4F092CF011093D001CB
:1013300094D4D1CF08951092900110928F01E09132
:10134000AC01F091AD0110820E94651260E080E076
:101350000E9490138093B60162E072E086EB91E008
:101360000E9424148091CF01813081F480912E015C
:101370008F9380912D018F938DEF91E09F938F93A9
:101380000E94731B0F900F900F900F900895E091A3
:10139000AC01F091AD0110820E94651260E080E026
:1013A0000E9490138093B60182EE91E09F938F93F9
:1013B0000E94731B10928E01E9E8F1E085E08083C2
:1013C00081838283838384830F900F900895CF92CB
:1013D000DF92EF92FF920F931F93CF938091D001F2
:1013E000882351F11092D0018091CF018F3F49F4B1
:1013F00060E082E00E94901366EF71E00E94591451
:101400001BC0813081F4C0902D01D0902E01E12CC1
:10141000F12C60E082E00E949013A701960166E043
:101420000E94111509C0823039F460E00E949013C7
:101430006FEE71E00E94591405E711E0C0E0D80199
:10144000ED91FD918D018385882341F061E08C2F22
:101450000E94901360E00E94171407C061E08C2F77
:101460000E94901361E00E941714CF5FC83039F7D3
:10147000CF911F910F91FF90EF90DF90CF90089543
:10148000EF92FF920F931F93CF93DF931F92CDB7ED
:10149000DEB761E080E00E94901389830F2EF9E8A7
:1014A000EF2EF1E0FF2EF02D10E001E080918E0193
:1014B000181740F41092B2016AE2CE0101960E9420
:1014C000F71315C018130CC00093B201F701608127
:1014D000605DCE0101960E94F7131092B20107C021
:1014E0001092B20160E2CE0101960E94F7131F5FD5
:1014F000FFEFEF1AFF0A1530C9F60F90DF91CF9179
:101500001F910F91FF90EF900895E091AC01F09141
:10151000AD0191E0908320918E0130E0F901E75711
:10152000FE4F9081992329F0F901E757FE4F915022
:101530009083A6CF0895E091AC01F091AD0191E0C8
:10154000908320918E0130E0F901E757FE4F9081A2
:10155000993028F4F901E757FE4F9F5F908390CFB1
:1015600008958093910190E1899FF0011124EA553B
:10157000FD4F2591349180E0F9010995089582E0AD
:10158000F0CF089590918E01992329F09150909376
:101590008E0176CF089580E0E4CF0895CF92DF9258
:1015A000EF92FF920F931F93CF93DF93E091AC01E3
:1015B000F091AD011082E0918E01E43070F4AE2F15
:1015C000B0E0A757BE4F9C91EF5FE0938E01F0E033
:1015D000E757FE4F908354DF4AC00F2EF9E8EF2EF5
:1015E000F1E0FF2EF02DC0E0D0E0CC24C394DD2448
:1015F000D39400E0F70111917F01CE01805090401B
:101600000E94551E1813D02EFE01EB56FD4FE4919B
:101610001E13C02E2196C530D10561F7D11002C02E
:10162000CC2019F082E09DDF22C04FD785ED91E0FC
:101630009F938F930E94731B61E080E00E94901340
:101640008093B6018EEC91E09F938F930E94731B61
:101650008FB7F89428E833E13093900120938F01FD
:101660008FBF84E07EDF0F900F900F900F90DF917F
:10167000CF911F910F91FF90EF90DF90CF90089541
:1016800080E06FCF0895E091AC01F091AD01108240
:1016900080918E01811109C087E08093870181E0EC
:1016A0008093880183E05DCF0895813049F486E01E
:1016B0008093870182E08093880183E052CF089570
:1016C000823041F485E08093870183E08093880134
:1016D00048CF0895833041F484E08093870180935C
:1016E000880183E03ECF0895843049F483E08093FD
:1016F000870185E08093880183E033CF08958530AA
:1017000049F482E08093870186E08093880183E03A
:1017100028CF0895863049F481E08093870187E0DF
:101720008093880183E01DCF0895883011F485E00F
:1017300018CF0895E091AC01F091AD01108282E0E4
:1017400010CF0895E091AC01F091AD01108260914D
:101750008501709186018091870190E0880F991F23
:101760008B5F9F4F0E946F1E61E080E0D9D780930E
:10177000B60188E991E09F938F930E94731B8FB706
:10178000F89420EA3FE03093900120938F018FBFBF
:1017900086E0E7DE0F900F90089580E0E2CE089596
:1017A000E091AC01F091AD01108282E0DACE0895B3
:1017B000EF92FF920F931F93CF93DF93E091AC01D1
:1017C000F091AD011082E0918E01E43070F4AE2F03
:1017D000B0E0A757BE4F9C91EF5FE0938E01F0E021
:1017E000E757FE4F90834CDE35C009E811E0C0E0BA
:1017F000D0E00F2EFEE8EF2EF1E0FF2EF02DF801E5
:1018000061918F01CE010E94621E21960E151F0567
:10181000B1F75BD68DE791E09F938F930E94731B86
:1018200061E080E07DD78093B60182E791E09F93ED
:101830008F930E94731B8FB7F89420E137E23093A7
:10184000900120938F018FBF84E08BDE0F900F906B
:101850000F900F90DF91CF911F910F91FF90EF901C
:10186000089582E07ECE089580E07BCE0895CF93E8
:10187000DF931F92CDB7DEB7BE016F5F7F4F8091C0
:10188000AC019091AD01B2D59FB7F89420918F0132
:10189000309190019FBF21303105B1F48FB7F8949A
:1018A0001092900110928F018FBF8091910120E1E1
:1018B000829FC001112488559D4FFC0125913491D0
:1018C0008981F901099512C090919101E82FF0E00A
:1018D00028E0929FE00DF11D1124EE0FFF1FE65648
:1018E000FD4F259134918981F90109950F90DF9180
:1018F000CF9108952FB7F89480918F019091900126
:101900008230910528F001979093900180938F0188
:101910002FBF08951F93CF93DF931F92CDB7DEB7EC
:1019200061E080E0FDD6898310E005C060E2CE0171
:1019300001965DD71F5F89D51817C0F361E080E07D
:10194000EFD68093B601E0918E01F0E0EE0FFF1F1D
:10195000E95EFE4F81818F9380818F930E94731B7C
:101960000F900F900F90DF91CF911F910895CF931B
:10197000C82FE091AC01F091AD011082A6D560E0D6
:1019800080E0CED68093B60122EC31E03F932F93D6
:101990000E94731B10928E018C2FBCDF0F900F9052
:1019A000CF910895E091AC01F091AD01108290913A
:1019B0008E01992321F0915090938E01ABCF089521
:1019C000E091AC01F091AD01108290918E019830C0
:1019D00020F49F5F90938E019DCF089561E080E099
:1019E0009FD68093B601809186018F938091850167
:1019F0008F93809188011F928F9388EA91E09F9343
:101A00008F930E94731B0F900F900F900F900F9069
:101A10000F900895CF93C82FE091AC01F091AD01E4
:101A200010822091870130E0C901880F991F8B5FD8
:101A30009F4F0E945D1E909386018093850145D53E
:101A400060E080E06DD68093B60128EB31E03F93F3
:101A50002F930E94731B8C2FC1DF0F900F90CF919B
:101A60000895E091AC01F091AD0191E09083209157
:101A70008501309186012115310539F02150310958
:101A80003093860120938501A9CF0895E091AC01A0
:101A9000F091AD0191E09083209185013091860114
:101AA00028399AE3390738F42F5F3F4F3093860186
:101AB0002093850193CF0895E091AC01F091AD01A1
:101AC00091E090838330C1F48091850190918601EB
:101AD0008A30910540F00A979093860180938501A2
:101AE00083E07CCF0895892B21F11092860110921A
:101AF000850183E073CF08958530D9F48091850105
:101B0000909186018F382AE3920740F40A969093C9
:101B100086018093850185E061CF089588399A43D5
:101B200040F488E99AE3909386018093850185E0EB
:101B300055CF0895EF92FF920F931F93CF93DF93AA
:101B40001F92CDB7DEB761E080E0EAD589830F2E22
:101B5000F9E8EF2EF1E0FF2EF02D10E001E080918A
:101B60008E01181738F41092B2016AE2CE01019684
:101B70003ED613C018130BC00093B201F701608169
:101B8000605DCE01019633D61092B20106C010926C
:101B9000B20160E2CE0101962AD61F5FFFEFEF1A75
:101BA000FF0A1530E1F60F90DF91CF911F910F9151
:101BB000FF90EF900895CF93C82F87D42AE831E0A3
:101BC0003F932F930E94731BE9E8F1E0108211828A
:101BD00012821382148210928E018C2FABDFE0915F
:101BE000AC01F091AD0110820F900F90CF9108954C
:101BF000E091AC01F091AD0191E0908320918E01D4
:101C000030E0F901E757FE4F9081992331F0F90157
:101C1000E757FE4F915090838DCF0895E091AC012E
:101C2000F091AD0191E0908320918E0130E0F901B7
:101C3000E757FE4F9081993030F4F901E757FE4F96
:101C40009F5F908377CF08950FDE0C944E02089526
:101C500051CE08950C94EE04089509CE0895DF9AAC
:101C6000DE9A85E18A95F1F70000DE9885E18A9594
:101C7000F1F70000DF980895DE9885E18A95F1F785
:101C80000000DF9A85E18A95F1F70000DE9A089559
:101C9000DF9A81E08093AB0185E18A95F1F700003E
:101CA000CE9B1092AB01DF9885E18A95F1F7000099
:101CB0000895DE98EDDFDE9A0895DE9AE9CF089563
:101CC000D698E6DFD69A0895D69898E080E0DF9A15
:101CD00025E12A95F1F70000880FCE998F5FDF98F4
:101CE00025E12A95F1F70000915089F7D69A0895D9
:101CF000CF93DF93D82FC8E0DD2314F4DE9A01C020
:101D0000DE98C6DFDD0FC150B9F7DF91CF9108959E
:101D1000A6DF80EDEDDFD4CF0895FF920F931F93E0
:101D2000CF93DF93FFB6F894F3DF80E0E1DFC8DF05
:101D3000C4E9D1E00CE911E08991DADFC1DFC01715
:101D4000D107D1F799DFFFBEDF91CF911F910F919E
:101D5000FF900895FF920F931F93CF93DF93FFB6E9
:101D6000F894D6DF80E0C4DFABDF79DF81EDC0DF40
:101D7000A7DFAADF8093A301C4EAD1E00BEA11E058
:101D800098DFA2DF8993C017D107D1F796DF74DF00
:101D9000FFBEDF91CF911F910F91FF900895CF93D8
:101DA000CFB7F894D7DFA3EAB1E08C91ECE9F1E08A
:101DB000982F9695969596959E71292F220F220F12
:101DC000920F8F70890F808311968C911197982FA5
:101DD0009695969596959E71292F220F220F920F18
:101DE0008F70890F818312962C911297822F90E029
:101DF00095958795959587959595879595958795CB
:101E00008370880F982F990F990F890F2F70820F69
:101E1000828313968C9113978770838314962C91E9
:101E20001497822F90E09595879595958795959530
:101E30008795959587958370880F982F990F990F9F
:101E4000890F2F70820F848315968C91159784FBD0
:101E5000992790F9990F292F220F220F920F8F7037
:101E6000890F858316968C91982F969596959695C1
:101E70009E71292F220F220F920F8F70890F868358
:101E8000CFBFCF9108959FB7F894E3EAF1E0A4E9BA
:101E9000B1E02BEA31E081918D93E217F307D9F796
:101EA0009FBF0895D79AD69ADF9ADE9A78DFEBDF44
:101EB00080919E01883110F01092960180919D01D1
:101EC0008C3310F01092950180919C018C3310F0AE
:101ED0001092940183E180939B011FCF089580911C
:101EE0002A0190912B01019729F090932B01809367
:101EF0002A01089588EE93E090932B0180932A01A4
:101F00004EDF809193018F5F823018F480939301AC
:101F100002C01092930180919C0190912901891730
:101F200029F08093290181E0809392010895EF9236
:101F3000FF920F931F93CF93DF9386D50E940F18C4
:101F400088E1E2D29093B1018093B00187E190E003
:101F50005CD6EC0125D0D093AD01C093AC01A2DFDB
:101F60006894EE24E7F8F12C00E110E023E040E073
:101F700060E875E280E090E04CD69093AF018093EA
:101F8000AE01DF91CF911F910F91FF90EF900895D7
:101F90004DD38091AC019091AD01ECD0A0CF0895CC
:101FA0001F93CF93DF93EC01E4E6F0E08081808122
:101FB000807F8083E5E6F0E080818F6080838FEF13
:101FC000898B188A1F861E861D861A8619868B871E
:101FD0001C861D8A1C8A81E0888380E190E017D6E8
:101FE0009B8B8A8B84E090E010D6FC0111821CE36D
:101FF0001283138210829A83898384E090E005D64D
:10200000FC0111821283138210829C838B8384E0F3
:1020100090E0FBD5FC0111821283138210829E8313
:102020008D8384E090E0F1D5FC011182128313824C
:10203000108298878F83DF91CF911F91089520E0C0
:1020400030E080E070E0AB01022E02C0559547956C
:102050000A94E2F740FD8F5F2F5F3F4F2430310538
:1020600091F70895DC013FB7F89454968C915497FA
:1020700091E0980F903130F090519031E8F791EF66
:10208000980F9F7055962C915597291759F0529695
:10209000ED91FC915397E80FF11D608354969C934A
:1020A0003FBF08953FBF0895FF920F931F93CF93B3
:1020B000DF93EC011B85111116C06C85662369F056
:1020C0008D859E858937910518F48881882319F0BC
:1020D0008881882311F0CE01C5DF1C861E861D86EF
:1020E000188A1F8641C0612FAADFF82E0C85602F49
:1020F000CE01A5DF8F1510F41C8702C0101330C06D
:102100008D859E85813D27E0920718F401969E8774
:102110008D8788818823D9F08D859E85803D974065
:1021200018F1612FCE019EDF8F859889803921E0DB
:10213000920740F40196988B8F878EE997E09E87EF
:102140008D8712C08EEC97E09E878D870DC08D85A0
:102150009E858837910541F4612FCE0183DF04C04D
:102160001E861D86188A1F86DF91CF911F910F91C1
:10217000FF900895CF93DF931F92CDB7DEB7FC0198
:10218000809163008F708983168A898183FB8827F9
:1021900080F9A181B2819FB7F8948823A9F01196A4
:1021A0008C911197882331F0815011968C9311975F
:1021B000811125C013968C911397882301F11396F2
:1021C0001C9213971C921BC011968C91119712961A
:1021D0002C911297821730F48F5F11968C93119780
:1021E000821768F013968C911397811108C081E0D3
:1021F00013968C9313978C9311962C931197139697
:102200008C919FBF9689892B868B898182FB882739
:1022100080F9A381B4819FB7F8948823A9F011961F
:102220008C911197882331F0815011968C931197DE
:10223000811125C013968C911397882301F1139671
:102240001C9213971C921BC011968C911197129699
:102250002C911297821730F48F5F11968C931197FF
:10226000821768F013968C911397811108C081E052
:1022700013968C9313978C9311962C931197139616
:102280008C919FBF90E0880F991F2689822B868BA7
:10229000898186958170A581B6819FB7F89488233E
:1022A000A9F011968C911197882331F081501196E5
:1022B0008C931197811125C013968C9113978823C5
:1022C00001F113961C9213971C921BC011968C91CE
:1022D000119712962C911297821730F48F5F1196F6
:1022E0008C931197821768F013968C911397811134
:1022F00008C081E013968C9313978C9311962C93BE
:10230000119713968C919FBF90E0880F991F880FAB
:10231000991F2689822B868B89818170A781B08540
:102320009FB7F8948823A9F011968C911197882370
:1023300031F0815011968C931197811125C013961D
:102340008C911397882301F113961C9213971C927A
:102350001BC011968C91119712962C91129782178F
:1023600030F48F5F11968C931197821768F0139653
:102370008C911397811108C081E013968C93139769
:102380008C9311962C93119713968C919FBF90E08C
:10239000880F991F880F991F880F991F2689822BF4
:1023A000868B2385281769F0218532852115310513
:1023B00031F02150310932872187232B99F483870B
:1023C00011C0818592858035910530F40196928700
:1023D00081878035910530F0CF0120E530E03287EC
:1023E000218762DE0F90DF91CF910895FC012FB716
:1023F000F89485899489891304C0DB011C9280E0DC
:1024000022C0A289B389A80FB11D8C91DB018C93E6
:10241000858991E0980F903130F090519031E8F734
:1024200091EF980F9F70958BFB018081813059F05F
:10243000823049F0843021F0883021F085E003C0FB
:1024400083E001C084E02FBF089580912C0108959E
:10245000282F22952F709BB3907F922B9BBBDC9AE9
:1024600093E09A95F1F70000DC9893E09A95F1F7E4
:1024700000008F709BB3907F892B8BBBDC9A83E02D
:102480008A95F1F70000DC9893E09A95F1F7000047
:102490000895CF93CFB7F894DD98E7ECF0E031974B
:1024A000F1F700C00000D4DFCFBFCF910895CF93E4
:1024B000CFB7F894DD9AE7ECF0E03197F1F700C080
:1024C0000000C6DFCFBFCF9108958091C30188235C
:1024D00071F080E020E2E091C101F091C201E80FCB
:1024E000F11D20838F5F9091C3018917A0F3E9EB61
:1024F000F1E01082118212821382148215821682F8
:1025000017821092B60108950F931F93CF93DF9314
:102510009AB39F609ABB9BB39F609BBBD49ADC9A93
:10252000D59ADD9A2FEF39E698E12150304090405E
:10253000E1F700C0000080932C01982F990F909331
:10254000C30190E0880F991F62D39093C2018093DA
:10255000C1011092B301E9EBF1E0F093B801E0930F
:10256000B7011092B6011082118212821382148276
:102570001582168217821092B5011092B401109242
:10258000B20188E286DFEFE3FFE13197F1F700C0A7
:10259000000088E27EDF8FE39FE10197F1F700C042
:1025A00000008CE076DF81E074DFEFE3FFE131973C
:1025B000F1F700C0000086E06CDF82E06ADF8FE3A5
:1025C0009FE10197F1F700C0000080E862DFEFE3D0
:1025D000FFE13197F1F700C0000080E45ADF8FE996
:1025E0009FE00197F1F700C00000CAE9D3E00AEAD2
:1025F00013E0FE0184915BDFF0E5FA95F1F7219697
:10260000C017D107B1F780E844DF8FE99FE0019759
:10261000F1F700C0000059DF60E070E080E194E174
:10262000FCD7DF91CF911F910F9108958091B40154
:102630009091B5010196811524E0920728F49093BA
:10264000B5018093B40104C01092B5011092B40199
:102650008091B3018F5F8093B3019091B30180911A
:10266000C301981750F01092B30189EB91E0909359
:10267000B8018093B70180E80CDF9091B30180919D
:102680002C01981308C08DEB91E09093B8018093D2
:10269000B70180ECFEDE87EC90E00197F1F700C017
:1026A00000008091B301E091C101F091C201E80FF7
:1026B000F11DE081EE2324F4F0E0E65DFC4FE491AF
:1026C0008091B301A091B701B091B80160912C0144
:1026D000F4D4292F8D919D910D90BC91A02D04C013
:1026E000B695A795979587952A95D2F780FF08C04C
:1026F0008091B4019091B5018115924008F4E0E217
:102700008E2FD5CE0895FC0190812091C3019217A0
:1027100030F0921B90832091C3019217D0F7089557
:10272000CF93DF931F92CDB7DEB790912C01699FB5
:10273000800D11248983CE010196E5DF89810F90F8
:10274000DF91CF910895FB012081222331F1FC011B
:10275000808160912C01B1D4292FE82FF0E0EE0F99
:10276000FF1FEE0FFF1FE754FE4F81E090E0A0E057
:10277000B0E004C0880F991FAA1FBB1F2A95D2F78B
:102780004081518162817381842B952BA62BB72BBD
:1027900080839183A283B3830895FC01808160913B
:1027A0002C018BD4292FE82FF0E0EE0FFF1FEE0F46
:1027B000FF1FE754FE4F81E090E0A0E0B0E004C0CE
:1027C000880F991FAA1FBB1F2A95D2F78095909555
:1027D000A095B095408151816281738184239523B6
:1027E000A623B72380839183A283B38308951F9385
:1027F000CF93DF93EC01162F86DF62EB71E0CE0101
:10280000A2DF8881E091C101F091C201E80FF11DC2
:10281000108388818F5F8883DF91CF911F91089506
:10282000682F86EB91E0E3DF81E090E00895CF939D
:10283000DF931F92CDB7DEB78983CE010196D7DF34
:102840000F90DF91CF910895DF92EF92FF920F9357
:102850001F93CF93DF93EC018B01E090C301EA94C7
:10286000F12C8FEFE81AF80AE60EF71E16C0CE011B
:102870004ADF62EB71E0CE0166DF8881E091C10141
:10288000F091C201E80FF11DD08288818F5F8883AB
:102890000F5F1F4F0E151F0521F0F801D490D110C6
:1028A000E6CFDF91CF911F910F91FF90EF90DF90D6
:1028B0000895CF93DF931F92CDB7DEB78983CE0102
:1028C0000196C2DF0F90DF91CF9108956F927F92B2
:1028D0008F929F92AF92BF92CF92DF92EF92FF9230
:1028E0000F931F93CF93DF931F92CDB7DEB78C0169
:1028F000B62E69017A01FC018081860F8083C801B0
:1029000002DFF801108111501983C701B6012AE0D6
:1029100030E040E050E0DDD3062F11232CF480910D
:102920002C01880F180F198362EB71E0CE0101961C
:102930000ADFE091C101F091C20189819FEF980FF8
:102940009983E80FF11D87FDFA95005D0083C701AB
:10295000B6012AE030E040E050E0BBD369017A01E3
:102960000EEF0B0DF1E0BF1609F44BC00F2EFAE08D
:102970008F2E912CA12CB12CF02D6894772475F812
:1029800001C0082FC701B601A5019401A2D3162FDB
:10299000662E898188232CF490912C01990F890F40
:1029A000898362EB71E0CE010196CDDE611010C02B
:1029B000C114D104E104F10459F48981E091C10109
:1029C000F091C201E80FF11D87FDFA9570820BC0EE
:1029D0008981E091C101F091C201E80FF11D87FDED
:1029E000FA95105D1083898181508983C701B601F2
:1029F000A50194016ED369017A018FEF800F011157
:102A0000C0CF0F90DF91CF911F910F91FF90EF906A
:102A1000DF90CF90BF90AF909F908F907F906F90FE
:102A20000895CF93DF931F92CDB7DEB78983CE0190
:102A300001964CDF0F90DF91CF91089580912C018A
:102A4000880F8093C3010895CF93DF9300D0CDB753
:102A5000DEB713BE83B7886083BF83B78F7B83BF26
:102A600083B78F7D83BF83B78F7E83BF8EE390E074
:102A70009A83898389819A81029770F481E090E03A
:102A80009A83898383B78B7F83BF83B78D7F83BF0F
:102A900083B7816083BF6AC089819A81099770F486
:102AA00088E090E09A83898383B78B7F83BF83B765
:102AB000826083BF83B78E7F83BF58C089819A812C
:102AC000819770F480E290E09A83898383B78B7F4B
:102AD00083BF83B7826083BF83B7816083BF46C0F3
:102AE00089819A818134910570F480E490E09A8321
:102AF000898383B7846083BF83B78D7F83BF83B7A8
:102B00008E7F83BF33C089819A818138910570F4AB
:102B100080E890E09A83898383B7846083BF83B71A
:102B20008D7F83BF83B7816083BF20C089819A81F5
:102B30008130914070F480E091E09A83898383B77B
:102B4000846083BF83B7826083BF83B78E7F83BF78
:102B50000DC080E094E09A83898383B7846083BF4B
:102B600083B7826083BF83B7816083BF83B7806888
:102B700083BF12BE29813A81A8EEB3E0E8D29B015F
:102B8000AC0160E074E284EF90E0A3D2215021BF59
:102B900086B78D7F86BF86B78E7F86BF87B78260F8
:102BA00087BF0F900F90DF91CF9108951F920F92E2
:102BB0000FB60F9211240BB60F922F933F934F93A2
:102BC0005F936F937F938F939F93AF93BF93EF9395
:102BD000FF9387B78D7F87BF7894DAD939D887B7C5
:102BE000826087BFFF91EF91BF91AF919F918F91CD
:102BF0007F916F915F914F913F912F910F900BBEFD
:102C00000F900FBE0F901F901895DAC30895D8C388
:102C100008954F925F926F927F928F929F92AF92A0
:102C2000BF92CF92DF92EF92FF920F931F93CF93B9
:102C3000DF9300D0CDB7DEB749832A832093C40148
:102C4000DC01CB01880F991FAA1FBB1F880F991F9A
:102C5000AA1FBB1F9C01AD01220F331F441F551F2C
:102C6000220F331F441F551F60E074E284EF90E091
:102C700030D2215031093093900029B91AB84981D6
:102C800039812A819A818A8140FB662460F8712CFF
:102C900031FB882480F8912C8628972820FBAA24D1
:102CA000A0F8B12CAA0CBB1C8A289B2891FBCC2431
:102CB000C0F8D12CCC0CDD1CCC0CDD1CC828D928CC
:102CC00082FB442440F8512C440C551C440C551CE8
:102CD0004C285D2840929500549A539A579A802F19
:102CE000912F95DF9093CC018093CB0101500093FD
:102CF000CE018E2D9F2D8BDF9093C8018093C7014D
:102D0000EA94E092CD0160E070E087E297E185D43B
:102D10000F900F90DF91CF911F910F91FF90EF9047
:102D2000DF90CF90BF90AF909F908F907F906F90EB
:102D30005F904F9008951F920F920FB60F9211243B
:102D40000BB60F928F939F93EF93FF938091CA01DD
:102D50008F5F9091CE0189239091C901891761F00D
:102D60009091CA01E091CB01F091CC01E90FF11DE6
:102D70009CB190838093CA01FF91EF919F918F91B5
:102D80000F900BBE0F900FBE0F901F9018951F92C3
:102D90000F920FB60F9211240BB60F928F939F9341
:102DA000EF93FF939091C6018091C501981302C0E3
:102DB000559813C0509A8091C501E091C701F091D8
:102DC000C801E80FF11D80818CB98091C5018F5F2A
:102DD0009091CD0189238093C501FF91EF919F913F
:102DE0008F910F900BBE0F900FBE0F901F901895F4
:102DF0003FB7F8949091C6019F5F2091CD01922337
:102E00002091C501921314C09FB7F8947894EFE90C
:102E1000FFE03197F1F700C000009FBF9091C6011D
:102E20009F5F2091CD0192232091C501921761F3FC
:102E30002091C601E091C701F091C801E20FF11D98
:102E400080839093C601559A3FBF81E00895D0DFFB
:102E500081E090E00895CF93DF93EC01888188238F
:102E600029F02196C5DF89918111FCCFDF91CF91A7
:102E70000895CF92DF92EF92FF921F93CF93DF934B
:102E8000CDB7DEB76C970FB6F894DEBF0FBECDBFDF
:102E9000282FCB01BA011C8E99234CF431E03C8FD2
:102EA00090958095709561957F4F8F4F9F4FFE0154
:102EB000E20FF11D11821FEF120F3C8D321700F54A
:102EC0000F2EFAE0CF2ED12CE12CF12CF02D01C0E9
:102ED000132FA70196011FD16B8F8B8DE1E0F0E0DE
:102EE000EC0FFD1FE10FF11D805D8083622F732FBA
:102EF000842F952F3FEF310F4C8D411748F301C0C0
:102F0000312FE1E0F0E0EC0FFD1FE30FF11D8DE24A
:102F10008083CE0101969FDF6C960FB6F894DEBFDA
:102F20000FBECDBFDF91CF911F91FF90EF90DF904B
:102F3000CF9008958F929F92AF92BF92CF92DF92DF
:102F4000EF92FF920F931F93CF93DF93CDB7DEB72E
:102F50006A970FB6F894DEBF0FBECDBFB82E7723A9
:102F600014F487DF49C090E0FE01E80FF91F1282D8
:102F70008F01CB01BA012AE030E040E050E0CBD035
:102F8000605DF8016183C22ED32EE42EF52E1FEF73
:102F90001B0DBB2071F10F2EFAE08F2E912CA12C6E
:102FA000B12CF02D00E2C701B601A5019401B3D008
:102FB00061110DC0C114D104E104F10441F4E1E058
:102FC000F0E0EC0FFD1FE10FF11D008309C0E1E00F
:102FD000F0E0EC0FFD1FE10FF11D80E3860F808311
:102FE000C701B601A501940196D069017A0111507B
:102FF000D0F6CE0101962FDF6A960FB6F894DEBFA9
:103000000FBECDBFDF91CF911F910F91FF90EF9039
:10301000DF90CF90BF90AF909F908F90089515BC98
:1030200085B5886085BD85B58F7B85BD85B58F7D70
:1030300085BD85B58F7E85BD85B58B7F85BD85B505
:10304000826085BD85B5816085BD85B58F7785BD7D
:1030500014BC81E383BD86B78F7786BF86B78F7B2D
:1030600086BF87B7806887BF08951F920F920FB6FB
:103070000F9211240BB60F922F933F934F935F93B0
:103080006F937F938F939F93AF93BF93EF93FF9330
:103090000E942A0EFF91EF91BF91AF919F918F9166
:1030A0007F916F915F914F913F912F910F900BBE48
:1030B0000F900FBE0F901F901895991B79E004C0D8
:1030C000991F961708F0961B881F7A95C9F7809567
:1030D0000895A1E21A2EAA1BBB1BFD010DC0AA1F59
:1030E000BB1FEE1FFF1FA217B307E407F50720F071
:1030F000A21BB30BE40BF50B661F771F881F991FEC
:103100001A9469F760957095809590959B01AC0134
:10311000BD01CF010895052E97FB16F400940FD042
:1031200057FD05D0D6DF07FC02D046F408C0509505
:103130004095309521953F4F4F4F5F4F08959095A3
:103140008095709561957F4F8F4F9F4F0895A29FF7
:10315000B001B39FC001A39F700D811D1124911D6B
:10316000B29F700D811D1124911D0895DF93CF939F
:103170001F930F939A9DF02D219FF00D8B9DF00DC5
:103180008A9DE02DF10D039FF00D029FE00DF11DD2
:103190004E9DE00DF11D5E9DF00D4F9DF00D7F9356
:1031A0006F93BF92AF925F934F93D501D0DF8B01A6
:1031B000AC01D701CCDFEB01E80FF91FD6011FD01E
:1031C0002F913F91D601C3DFC60FD71FE81FF91F0C
:1031D000AF91BF9114D02F913F91B9DFC60FD71F88
:1031E000E81FF91FD601B3DFE60FF71F9801BE01F4
:1031F000CF0111240F911F91CF91DF910895A7DF87
:10320000460F571FC81FD91F08F4319608956894B8
:1032100001C0E894F92FF12B0AF027C0A0E0B0E03C
:10322000E3E1F9E193C0092E05941AF479D0112352
:1032300092F4F0E80F26FFEFE094F09400951095DB
:10324000B094C094D094A194BF0ACF0ADF0AEF0AC9
:10325000FF0A0F0B1F0B13D007FC62D0CDB7DEB7F0
:10326000ECE090C0689401C0E8948F929F92CF9355
:10327000DF9305D0DF91CF919F908F9008958824A0
:103280009924F401E401B0E49F93AA279A158B04D2
:103290009C04ED05FE05CF05D007A10798F4AD2FDE
:1032A000DC2FCF2FFE2FE92D982C892E982F872FDA
:1032B000762F652F542F432F322F2227B85031F706
:1032C000BF9127C01B2EBF91BB27220F331F441F66
:1032D000551F661F771F881F991F881C991CEE1F9A
:1032E000FF1FCC1FDD1FAA1FBB1F8A149B04EC0508
:1032F000FD05CE05DF05A007B10748F08A189B0839
:10330000EC09FD09CE09DF09A00BB10B21601A946D
:10331000E1F62EF49401AF01BE01CD01000C089539
:103320006095709580959095309540955095219534
:103330003F4F4F4F5F4F6F4F7F4F8F4F9F4F0895BE
:103340002F923F924F925F926F927F928F929F92B5
:10335000AF92BF92CF92DF92EF92FF920F931F93A3
:10336000CF93DF93CDB7DEB7CA1BDB0B0FB6F89454
:10337000DEBF0FBECDBF09942A88398848885F8494
:103380006E847D848C849B84AA84B984C884DF8005
:10339000EE80FD800C811B81AA81B981CE0FD11DE9
:1033A0000FB6F894DEBF0FBECDBFED010895EE0F4E
:1033B000FF1F0024001C0BBE0790F691E02D09941E
:1033C000CF93DF938230910510F482E090E0E0919A
:1033D000D301F091D40120E030E0C0E0D0E030979C
:1033E00011F14081518148175907C0F0481759071A
:1033F00061F482819381209719F09B838A832BC08B
:103400009093D4018093D30126C02115310519F082
:103410004217530718F49A01BE01DF01EF01028041
:10342000F381E02DDCCF2115310509F1281B390B83
:103430002430310590F412968D919C91139761156B
:10344000710521F0FB019383828304C09093D40122
:103450008093D301FD01329644C0FD01E20FF31FBA
:1034600081939193225031092D933C933AC020913E
:10347000D1013091D201232B41F4209102013091EE
:1034800003013093D2012093D101209100013091AA
:1034900001012115310541F42DB73EB740910401DA
:1034A00050910501241B350BE091D101F091D2011F
:1034B000E217F307A0F42E1B3F0B2817390778F00B
:1034C000AC014E5F5F4F2417350748F04E0F5F1F6A
:1034D0005093D2014093D1018193919302C0E0E0D7
:1034E000F0E0CF01DF91CF9108950F931F93CF9319
:1034F000DF93009709F48CC0FC013297138212828B
:103500000091D3011091D4010115110581F420819E
:103510003181820F931F2091D1013091D201281760
:10352000390779F5F093D201E093D10171C0D80148
:1035300040E050E0AE17BF0750F412962D913C9139
:103540001397AD012115310509F1D901F3CF9D0183
:10355000DA013383228360817181860F971F82177E
:10356000930769F4EC0128813981260F371F2E5FFC
:103570003F4F318320838A819B8193838283452BB4
:1035800029F4F093D401E093D30142C01396FC9345
:10359000EE931297ED01499159919E01240F351F29
:1035A000E217F30771F480819181840F951F0296D1
:1035B00011969C938E938281938113969C938E9304
:1035C0001297E0E0F0E0D80112968D919C9113974C
:1035D000009719F0F8018C01F6CF8D919C9198011C
:1035E0002E5F3F4F820F931F2091D1013091D20166
:1035F0002817390769F4309729F41092D4011092F2
:10360000D30102C0138212821093D2010093D10120
:10361000DF91CF911F910F9108950F931F93CF9337
:10362000DF93009731F46115710519F480E090E0A3
:1036300039C08B01EC016EE070E081E090E068D26F
:10364000FC01892B99F380E883830115110571F042
:103650001387028781E883838091D5019091D601F9
:10366000892B21F4F093D601E093D5012097C9F07E
:10367000D187C0878381826083838091D7019091B5
:10368000D801892B71F4F093D801E093D701809190
:10369000D9019091DA01892B21F4F093DA01E093BA
:1036A000D901CF01DF91CF911F910F9108950F9311
:1036B0001F93CF93DF93CDB7DEB70F811885F80145
:1036C000838188608383AE01455F5F4F69857A851A
:1036D000C80130D0F8012381277F2383DF91CF9168
:1036E0001F910F9108950F931F93CF93DF93CDB741
:1036F000DEB7AE01495F5F4FDA016D917D91AD019B
:1037000005ED11E0F80182819381DC0113962C9183
:103710001397286013962C930DD0D8011296ED9133
:10372000FC9113972381277F2383DF91CF911F91F2
:103730000F9108952F923F924F925F926F927F92D6
:103740008F929F92AF92BF92CF92DF92EF92FF92B1
:103750000F931F93CF93DF93CDB7DEB72C970FB6A0
:10376000F894DEBF0FBECDBF7C016B018A01FC0166
:1037700017821682838181FFB0C1CE0101964C0170
:10378000F7019381F60193FD859193FF81916F017C
:10379000882309F49EC1853239F493FD859193FF06
:1037A00081916F01853221F4B70190E0E8D1E8CF33
:1037B000512C312C20E02032A0F48B3269F030F40F
:1037C000803259F0833269F420612CC08D3239F097
:1037D000803339F4216026C02260246023C0286031
:1037E00021C027FD27C030ED380F3A3078F426FF8E
:1037F00006C0FAE05F9E300D1124532E13C08AE0FC
:10380000389E300D1124332E20620CC08E3221F4EC
:1038100026FD5FC1206406C08C3611F4206802C00A
:10382000883641F4F60193FD859193FF81916F01F4
:103830008111C1CF982F9F7D9554933028F40C5F50
:103840001F4FFFE3F9830DC0833631F0833771F0EA
:10385000833509F057C021C0F801808189830E5F4C
:103860001F4F44244394512C540114C03801F2E0FA
:103870006F0E711CF801A080B18026FF03C0652D7A
:1038800070E002C06FEF7FEFC5012C876DD12C0176
:1038900083012C852F77222E16C03801F2E06F0E9F
:1038A000711CF801A080B18026FF03C0652D70E077
:1038B00002C06FEF7FEFC5012C8744D12C012C850E
:1038C0002068222E830123FC19C0832D90E0481626
:1038D0005906A0F4B70180E290E051D13A94F5CFB7
:1038E000F50127FC859127FE81915F01B70190E0EA
:1038F00046D131103A94F1E04F1A51084114510465
:1039000079F7DEC0843611F0893631F5F80127FFEA
:1039100007C060817181828193810C5F1F4F08C055
:1039200060817181072E000C880B990B0E5F1F4F71
:103930002F76722E97FF09C09095809570956195AE
:103940007F4F8F4F9F4F2068722E2AE030E0A401F6
:103950004ED1A82EA81843C0853729F42F7EB22E49
:103960002AE030E025C0F22FF97FBF2E8F36C1F05C
:1039700018F4883579F0ADC0803719F0883721F018
:10398000A8C02F2F2061B22EB4FE0DC08B2D8460F5
:10399000B82E09C024FF0AC09F2F9660B92E06C01A
:1039A00028E030E005C020E130E002C020E132E054
:1039B000F801B7FE07C060817181828193810C5F3D
:1039C0001F4F06C06081718180E090E00E5F1F4F45
:1039D000A4010DD1A82EA818FB2DFF777F2E76FE0F
:1039E0000BC0372D3E7FA51450F474FE0AC072FC44
:1039F00008C0372D3E7E05C0BA2C372D03C0BA2C27
:103A000001C0B52C34FF0DC0FE01EA0DF11D80810F
:103A1000803311F4397E09C032FF06C0B394B394E9
:103A200004C0832F867809F0B39433FD12C030FFB1
:103A300006C05A2CB31418F4530C5B18B32CB314EF
:103A400060F4B70180E290E03C8799D0B3943C8564
:103A5000F6CFB31410F43B1801C0312C34FF11C061
:103A6000B70180E390E03C878AD03C8532FF16C0E6
:103A700031FD03C088E790E002C088E590E0B7011F
:103A80000CC0832F867851F031FF02C08BE201C059
:103A900080E237FD8DE2B70190E071D0A51430F4DB
:103AA000B70180E390E06BD05A94F8CFAA94F40168
:103AB000EA0DF11D8081B70190E061D0A110F6CF31
:103AC000332009F45DCEB70180E290E058D03A94FB
:103AD000F7CFF7018681978102C08FEF9FEF2C9679
:103AE0000FB6F894DEBF0FBECDBFDF91CF911F910F
:103AF0000F91FF90EF90DF90CF90BF90AF909F908D
:103B00008F907F906F905F904F903F902F9008958F
:103B10000F931F93CF93DF93869F8001879F100D94
:103B2000969F100D1124C8014BDCEC01009721F089
:103B3000A80160E070E011D0CE01DF91CF911F911C
:103B40000F910895FC010590615070400110D8F765
:103B5000809590958E0F9F1F0895DC0101C06D9395
:103B600041505040E0F70895FC01615070400190D1
:103B70000110D8F7809590958E0F9F1F08950F9391
:103B80001F93CF93DF93FB01238121FD03C08FEFB0
:103B90009FEF28C022FF16C04681578124813581BE
:103BA0004217530744F4A081B1819D012F5F3F4F1D
:103BB000318320838C93268137812F5F3F4F37835A
:103BC000268310C0EB01092F182F0084F185E02D0A
:103BD0000995892BE1F68E819F8101969F838E83C3
:103BE000812F902FDF91CF911F910F910895FA01AE
:103BF000AA27283051F1203181F1E8946F936E7F2C
:103C00006E5F7F4F8F4F9F4FAF4FB1E03ED0B4E01C
:103C10003CD0670F781F891F9A1FA11D680F791F5D
:103C20008A1F911DA11D6A0F711D811D911DA11D6E
:103C300020D009F468943F912AE0269F112430197E
:103C4000305D3193DEF6CF010895462F4770405D19
:103C50004193B3E00FD0C9F7F6CF462F4F70405DC8
:103C60004A3318F0495D31FD4052419302D0A9F723
:103C7000EACFB4E0A6959795879577956795BA951D
:103C8000C9F700976105710508959B01AC010A2EE3
:103C900006945795479537952795BA95C9F7620FBA
:103CA000731F841F951FA01D0895E199FECF9FBB30
:103CB0008EBBE09A99278DB30895A8E1B0E042E069
:103CC00050E012C0262FE199FECF9FBB8EBB2DBBCB
:103CD0000FB6F894E29AE19A0FBE01960895F2DFCA
:103CE000272FF1CFDC01CB01FC01E199FECF06C00B
:103CF000FFBBEEBBE09A31960DB20D9241505040A1
:083D0000B8F70895F894FFCF15
:103D08000000DB0120000200007805F00A6810E0DE
:103D180015581BC2337E3685027502650255024569
:103D2800023502250215020502FF0100107D000080
:00000001FF
